:10000000C2A0C2A1118D11B611C411D811B611C46C
:10001000E53075F03284A8F075F01DA4F9E875F0AC
:1000200003A475F0058429240175F0648460042418
:10003000301177E5F075F00A84243011777400E50B
:10004000F02430117774DF740024DF117774437467
:10005000002443117775A000740020A104C2A08081
:10006000F7D2A075891011D880EEF5B0C2A6C2A74C
:10007000D28711D3C28722F5B0D2A6C2A7D28711E8
:10008000D3C28722780A79FFD9FED8FA22743811B0
:100090006A11D3740F116A11D37401116A11D3223A
:1000A00074C0116A11D322900300E493117711D325
:1000B000A3600280F522C2A511D3C2A3D2A520A4B9
:1000C000FDD2A422C2A5D2A211D3C2A211D3E5901F
:1000D000F530227C0ADCFE227DAF758D04758B0025
:0C00E000D28E308FFDC28EC28FDDEF2269
:0603000048454C4C4F0083
:00000001FF
